:020000000F28C7
:10000800FE00030EF0000408F1000A08F200831253
:100018007F08F30038281028F401F501830114281B
:10002800013083168F00203085008312850105304A
:10003800831681009F018312851A2F28740875047E
:10004800031D2F28163081008B170B118B160130DA
:10005800F4000030F500851E1F288B120B118B133E
:100068000511F401F5011F2805158B130B118B12CF
:100078007308FF0072088A0071088400700E8300FC
:06008800FE0E7E0E0900D1
:02400E00E4F3D9
:00000001FF
