:040000000BEF00F012
:100008003982FACF1BF0FBCF1CF0ACED04F0CCEF3B
:0200180005F0F1
:100800000001000A006400E80310272564000000CE
:10081000110E146E000E156E8CD0250E1A18D8B459
:1008200009D00DC0D9FF0EC0DAFF1AC0DFFF0D4A94
:100830000E2A7FD0000E166E0FC0F6FF10C0F7FF15
:100840000F4A102A0800F5CF1AF01A50000AD8B43F
:100850007CD0640AD8B403D00D0AD8A46AD014C0DE
:10086000D9FF15C0DAFFDECF18F0DDCF19F0020E88
:100870001426000E152219AE06D0030E1612186C9F
:10088000191ED8B0192A010E1A6E050E1A18D8B4FE
:1008900012D01A50020D010EF324F66E080EF42049
:1008A000F76E0900F550185C0900F5501958D8A0EA
:1008B00002D01A2AEAD716C013F0030E1316D8B4C2
:1008C00008D00DC0D9FF0EC0DAFF2D0EDF6E0D4A25
:1008D0000E2A1AC017F029D01750020D010EF3246A
:1008E000F66E080EF420F76E0900F5CF03F00A004B
:1008F000F5CF04F018C001F019C002F049EC05F082
:1009000001C008F002C009F0000E0B6E0A0E0A6E5C
:1009100072EC05F00850300F1A6E0DC0D9FF0EC0F2
:10092000DAFF1AC0DFFF0D4A0E2A17061728D8A4CF
:10093000D3D70FC0F6FF10C0F7FF0F4A102A0800E8
:10094000F5CF1AF01A50D8A468D70DC0D9FF0EC041
:10095000DAFF000EDF6E12000600E9CF1DF0EACFCD
:100960001EF0E1CF1FF0E2CF20F0D9CF21F0DACF97
:1009700022F0F3CF23F0F4CF24F0F6CF25F0F7CF19
:1009800026F0F8CF27F0F5CF28F0F29EF2A463D03E
:10099000000E366E000E356E000E386E000E376E8D
:1009A000CECF33F0CFCF34F0290E0D6E000E0E6E89
:1009B0000B0E0F6E080E106E33C011F034C012F023
:1009C00008EC04F0290E3524D96E000E3620DA6EBC
:1009D000DF50D8A407D0010E3724376E000E382020
:1009E000386E05D0354A362A374A382AEBD7010EF9
:1009F000806E290E016E000E026EFF0E3724036E0C
:100A0000FF0E3820046EB0EC05F0210EE82EFED764
:100A100000F00D0EDAEC05F0210EE82EFED700F006
:100A20000A0EDAEC05F0000E806E210EE82EFED7DD
:100A300000F0210EE82EFED700F0000E346E000EFE
:100A4000336EB30ED76EB50ED66E000ECF6E000E9F
:100A5000CE6EF294F28E28C0F5FF27C0F8FF26C0B4
:100A6000F7FF25C0F6FF24C0F4FF23C0F3FF22C028
:100A7000DAFF21C0D9FF20C0E2FF1FC0E1FF1EC086
:100A8000EAFF1DC0E9FF1CC0FBFF1BC0FAFF399243
:100A90001100000E066E000E056E03500410D8B44F
:100AA0001CD0010E076E04D0D89003360436072AF6
:100AB00004AEFAD7D890053606360350015C0450D0
:100AC0000258D8A005D00350015E0450025A058098
:100AD000D89004320332072EEDD705C001F006C0CE
:100AE00002F012000A500B10D8B418D0010E0C6E90
:100AF00004D0D8900A360B360C2A0BAEFAD70A501F
:100B0000085C0B500958D8A004D00A50085E0B505E
:100B1000095AD8900B320A320C2EF1D708C008F0CF
:100B200009C009F01200180E926E000E936E000EAE
:100B3000946E94809492D09EC00EF26E870ED56E05
:100B4000C70ECD6EB30ED76EB50ED66E000ECF6E3D
:100B5000000ECE6EF28A000E806ED3EC05F0FFD749
:100B6000000E076E000E066E0CD09EA8FED701C0C8
:100B7000D9FF02C0DAFFDF50AD6E014A022A064AF1
:100B8000072A0350065C0750800A056E0450800A4D
:100B90000558D8B01200E9D739903992000EF86E96
:100BA000000193EF05F0810EAF6E240EAC6E900E37
:100BB000AB6E1200016E9EA8FED701C0ADFF120001
:020000040020DA
:08000000FFFFFFFFFFFFFFFF00
:020000040030CA
:0E000000000C1F1FFF8185FF0FC00FE00F4097
:00000001FF
