:020000000F28C7
:10000800FE00030EF6000408F7000A08F800831241
:100018007F08F900D8291028703084007630FF2135
:100028008313203084003230FF2183011B280130E4
:1000380083168F0005308100803083129F00333093
:1000480083169F008B130B118B120B130C13831247
:100058000C130730831685008312A801A901F40147
:10006800F501A201A301F001F101A401A501AA0172
:10007800AB01AC01AD0185120512B001B101A601B9
:10008800A70174087504031D662870087104031D10
:10009800662830083104031D66282C082D04031D2A
:1000A800662872087304031D66287408013EF4006C
:1000B80075080318013E003EF5000130B20000301B
:1000C800B300BB2174037504031D832870087104F1
:1000D800031D832883122C082D04031D832872080E
:1000E8007304031D83287408013EF400750803187F
:1000F800013E003EF5000030B200B300BB210230E3
:1001080074067504031D962870087104031D96284B
:1001180083122C082D04031D962872087304031DEE
:1001280096286421033074067504031DBB287008E3
:100138007104031DBB28831228032904031DBB284F
:100148002C082D04031DBB2872087304031DBB284B
:10015800A801A9017408013EF40075080318013EBE
:10016800003EF5000130B2000030B300BB2104307E
:1001780074067504031DD92870087104031DD92855
:1001880083122C082D04031DD92872087304031D3B
:10019800D9287408013EF40075080318013E003E92
:1001A800F5000030B200B300BB21053074067504B9
:1001B800031DE72870087104031DE72872087304FB
:1001C800031DE72893218312051D0B292608270400
:1001D800031D0B2922082304031D0B292C082D04B9
:1001E800031D0B292E082F04031D0B290130F200D3
:1001F8000030F3002208013EA20023080318013E44
:10020800003EA3008630B2000030B300F021831214
:1002180022032304031D2029280329040319051D8B
:1002280020290516A201A301A801A9010130A600F1
:100238000030A700F201F30122032304031D2F2934
:1002480028032904031905192F29A201A301A801CC
:10025800A901F201F30170037104031D402972081A
:100268007304031D40297008013EF000710803184B
:10027800013E003EF1009F1402307006710403191C
:100288009F18452872087304031D4528200321047C
:10029800031D54291E08A50083161E088312A400F6
:1002A80020082104031D5E291E08AB0083161E08C2
:1002B8008312AA001F10F001F101A801A901452825
:1002C80083122B08803AB4002508803A3402031DB3
:1002D8006F2924082A02031C7329F401F5018312EB
:1002E8002508803AB4002B08803A3402031D7E2981
:1002F8002A082402031C080001308312AE000030D3
:10030800AF007408013EF40075080318013E003E72
:10031800F5008630B2000030B300F02108008312E7
:100328002B08803AB2002508803A3202031D9E2924
:1003380024082A02031CA529F401F5018312AE0141
:10034800AF0183122508803AB2002B08803A3202A6
:10035800031DB0292A082402031C080083128516ED
:100368000130B0000030B100AE01AF0108007008E4
:10037800013EF00071080318013E003EF1008312AF
:1003880032083304031DCC29A001A1019F111F11BC
:1003980032033304031DD6290130A0000030A10028
:1003A8009F111F151F1408002808013EA8002908DE
:1003B8000318013E003EA9008B138B120B11AC01F0
:1003C800AD017908FF0078088A0077088400760E66
:1003D8008300FE0E7E0E090001308312AC0000304F
:1003E800AD008530831681008312320881008B1797
:1003F8000B118B16080064008001840A0406031997
:0604080000340406002A86
:02400E00F4FFBD
:00000001FF
