:020000000F28C7
:10000800FE00030EF6000408F7000A08F800831241
:100018007F08F900C5291028F001F101F201F30168
:10002800F401F501A001A10183011A28013083160A
:100038008F00853081009F010511051685168312F2
:1000480005110430FA000030FB00F201F301F00161
:10005800F101F401F501A001A101051A4C2872086B
:100068007304031D4C2870087104031D4C280430C8
:100078007A067B04031D4C280515FA01FB010130A3
:10008800F0000030F100E830A2000030A300DB21CE
:100098008312051E572870037104031D5728013069
:1000A800F4000030F50072087304031D7F28700304
:1000B8007104031D7F287A037B04031D7F28051123
:1000C8007008013EF00071080318013E003EF1007F
:1000D800E830A2000030A300DB2174037504031D7F
:1000E8007F287008013EF00071080318013E003EA9
:1000F800F100F401F5018312051E8F280230700605
:100108007104031D8F287008013EF0007108031860
:10011800013E003EF10072087304031DAB28033052
:1001280070067104031DAB2802307A067B04031D98
:10013800AB2805157008013EF00071080318013E50
:10014800003EF100E830A2000030A300DB21720875
:100158007304031DC828043070067104031DC828E1
:1001680003307A067B04031DC82883120511700822
:10017800013EF00071080318013E003EF100E8302E
:10018800A2000030A300DB218312051ED72805300A
:1001980070067104031DD72804307A067B04031DFA
:1001A800D728F001F101851AFE2872087304031D8F
:1001B800FE2804307A067B04031DFE2874087504A3
:1001C800031DFE2870087104031DFE280515FA0199
:1001D800FB010130F4000030F5007208013EF20026
:1001E80073080318013E003EF300E830A200003017
:1001F800A300DB218312851E112972037304031DDA
:10020800112970087104031D11297208013EF200BA
:1002180073080318013E003EF3007A037B04031DB4
:100228002E29023072067304031D2E2970087104EA
:10023800031D2E290511F401F5017208013EF20093
:1002480073080318013E003EF300E830A2000030B6
:10025800A300DB218312851E472902307A067B041E
:10026800031D4729033072067304031D47297008CC
:100278007104031D47297208013EF2007308031830
:10028800013E003EF300051A562904307206730435
:10029800031D562970087104031D56290130F0000A
:1002A8000030F100051E6329043072067304031D33
:1002B800632970037104031D6329F001F101851A94
:1002C8008129043072067304031D812902307A06DD
:1002D8007B04031D812970087104031D81290515FC
:1002E8007208013EF20073080318013E003EF30055
:1002F800E830A2000030A300DB218312851E952977
:10030800053072067304031D952970087104031DD6
:1003180095297208013EF20073080318013E003E59
:10032800F30003307A067B04031DB12906307206F8
:100338007304031DB12970087104031DB129051147
:100348007208013EF20073080318013E003EF300F4
:10035800E830A2000030A300DB218312851E31287B
:1003680004307A067B04031D3128073072067304B3
:10037800031D312870087104031D3128F201F301AF
:1003880031287A08013EFA007B080318013E003E36
:10039800FB008B138B120B117908FF0078088A0079
:1003A80077088400760E8300FE0E7E0E0900831205
:0C03B800220881008B170B118B16080027
:02400E00E4F3D9
:00000001FF
